:020000040000FA
:100000000C94DF000C9407010C9407010C942F0B47
:100010000C942F0B0C942F0B0C9407010C940701DC
:100020000C9407010C9407010C9407010C94070130
:100030000C9407010C9407010C9407010C94070120
:100040000C94C6090C9407010C9494090C946E0945
:100050000C9407010C9407010C9407010C94070100
:100060000C94100A0C94070100407A10F35A00A077
:10007000724E18090010A5D4E80000E87648170071
:1000800000E40B54020000CA9A3B000000E1F505B1
:10009000000080969800000040420F000000A086FB
:1000A00001000000102700000000E803000000002D
:1000B0006400000000000A000000000001000000D1
:1000C00000002C76D888DC674F0823DFC1DFAE59EB
:1000D000E1B1B796E5E3E453C63AE651997696E87E
:1000E000E6C28426EB898C9B62ED407C6FFCEFBC02
:1000F0009C9F40F2BAA56FA5F490055A2AF75C932D
:100100006B6CF9676DC11BFCE0E40D47FEF520E662
:10011000B500D0ED902E0300943577050080841E45
:10012000080000204E0A000000C80C333333330FA0
:10013000986E12831141EF8D2114893BE65516CF3D
:10014000FEE6DB18D1844B381BF77C1D901DA4BB49
:10015000E424203284725E228100C9F124ECA1E5FE
:100160003D2700000000240027002A0000000000B6
:10017000250028002B000000000023002600290095
:10018000040404040404040402020202020203033D
:100190000303030301020408102040800102040845
:1001A00010200102040810200000000800020100D5
:1001B000000304070000000000000000390B1124B8
:1001C0001FBECFEFD8E0DEBFCDBF23E0AEEBB1E086
:1001D00001C01D92AA38B207E1F711E0A0E0B1E03A
:1001E000EAEEFFE202C005900D92AE3BB107D9F7EF
:1001F00010E0CFEDD0E004C02197FE010E94FB1576
:10020000CE3DD107C9F70E949C0B0C94F3170C94B8
:1002100000000895089580911F0390912003891B89
:10022000990B0895AF92BF92CF92DF92EF92FF9217
:100230000F931F93CF93DF936C017B018B01040F0E
:10024000151FEB015E01AE18BF08C017D10759F0AA
:100250006991D601ED91FC910190F081E02DC601EC
:100260000995892B79F7C501DF91CF911F910F91E6
:10027000FF90EF90DF90CF90BF90AF900895FC017A
:10028000538D448D252F30E0842F90E0821B930BFB
:10029000541710F0CF96089501970895FC01918DA1
:1002A000828D981761F0A28DAE0FBF2FB11D5D96A4
:1002B0008C91928D9F5F9F73928F90E008958FEF46
:1002C0009FEF0895FC01918D828D981731F0828DFA
:1002D000E80FF11D858D90E008958FEF9FEF089551
:1002E000FC01918D228D892F90E0805C9F4F821BB5
:1002F00091098F73992708958CE792E00E9470010D
:1003000021E0892B09F420E0822F089580E090E01D
:10031000892B29F00E947C0181110C940000089522
:10032000FC01A48DA80FB92FB11DA35ABF4F2C916A
:10033000848D90E001968F739927848FA689B78961
:100340002C93A089B1898C91837080648C93938D58
:10035000848D981306C00288F389E02D80818F7DFB
:1003600080830895EF92FF920F931F93CF93DF93B3
:10037000EC0181E0888F9B8D8C8D98131AC0E889E1
:10038000F989808185FF15C09FB7F894EE89FF89B0
:100390006083E889F98980818370806480839FBF4E
:1003A00081E090E0DF91CF911F910F91FF90EF904E
:1003B0000895F62E0B8D10E00F5F1F4F0F7311275E
:1003C000E02E8C8D8E110CC00FB607FCFACFE88999
:1003D000F989808185FFF5CFCE010E949001F1CF90
:1003E000EB8DEC0FFD2FF11DE35AFF4FF0829FB70D
:1003F000F8940B8FEA89FB8980818062CFCFCF93FD
:10040000DF93EC01888D8823B9F0AA89BB89E8893C
:10041000F9898C9185FD03C0808186FD0DC00FB6E2
:1004200007FCF7CF8C9185FFF2CF808185FFEDCF60
:10043000CE010E949001E9CFDF91CF9108958330E2
:1004400081F028F4813099F08230A9F00895873046
:10045000A9F08830C9F08430B1F4809180008F7D9C
:1004600003C0809180008F7780938000089584B5C9
:100470008F7784BD089584B58F7DFBCF8091B000C8
:100480008F778093B00008958091B0008F7DF9CF71
:10049000CF93DF93282F30E0F901E855FE4F849188
:1004A000F901EC56FE4FD491F901E058FE4FC4918A
:1004B000CC23A1F081110E941F02EC2FF0E0EE0F7F
:1004C000FF1FEA58FE4FA591B491EC91ED2381E016
:1004D00090E009F480E0DF91CF91089580E090E012
:1004E000FACF1F93CF93DF93282F30E0F901E8551F
:1004F000FE4F8491F901EC56FE4FD491F901E0587A
:10050000FE4FC491CC23A9F0162F81110E941F0227
:10051000EC2FF0E0EE0FFF1FE459FE4FA591B491D0
:100520008FB7F894EC91111108C0D095DE23DC93BD
:100530008FBFDF91CF911F910895DE2BF8CFCF931E
:10054000DF9390E0FC01EC56FE4F249180589E4FC3
:10055000FC0184918823D1F090E0880F991FFC0161
:10056000EE59FE4FA591B491FC01E459FE4FC5919F
:10057000D49161110EC09FB7F8948C91E22FE09551
:100580008E238C932881E223E8839FBFDF91CF9154
:1005900008958FB7F894EC91E22BEC938FBFF6CFD0
:1005A0003FB7F8948091050290910602A09107024E
:1005B000B091080226B5A89B05C02F3F19F00196FF
:1005C000A11DB11D3FBFBA2FA92F982F8827BC01AD
:1005D000CD01620F711D811D911D42E0660F771FD5
:1005E000881F991F4A95D1F708958F929F92AF92D5
:1005F000BF92CF92DF92EF92FF924B015C010E947B
:10060000D0026B017C010E94D0026C197D098E0919
:100610009F09683E734081059105A8F321E0821A85
:100620009108A108B10888EEC80E83E0D81EE11C2D
:10063000F11C81149104A104B10429F7FF90EF90FB
:10064000DF90CF90BF90AF909F908F9008952091B2
:10065000E101260F3327331F21323105ECF42091BD
:100660007602FC0190E080E0243069F082E0089599
:10067000A091E1012191AC014F535E4FA40FB52F22
:10068000B11D2C930196861798F38091E101680FB4
:100690006093E10180E0089581E008951092760270
:1006A00081E0809355021092500261E082E10E9445
:1006B000710261E083E10E947102E9EBF0E0808168
:1006C0008E7F808380818D7F808388E48093B800D3
:1006D00085E48093BC000895CF93DF9391E09093DD
:1006E000C0018823B9F0C091B800D091BA008091C0
:1006F000BC008A7B8093BC0060E082E10E947102B2
:1007000060E083E10E9471020E944E03D093BA0020
:10071000C093B800DF91CF910895CF92DF92EF920E
:10072000FF920F931F93CF93DF93D82FC62F613281
:1007300008F098C00E94D0026B017C018091760283
:1007400081116BC081E080937602809355029FEF08
:1007500090935402109253029C0F909352028093F4
:10076000510280915102DD0FD82BD093510280911C
:100770005002813009F078C0109250020E94D002DD
:100780006B017C01809151028093BB0080917802C3
:1007900090917902A0917A02B0917B02892B8A2BE9
:1007A0008B2BA1F00E94D002009178021091790267
:1007B00020917A0230917B026C197D098E099F0984
:1007C000061717072807390708F448C08091BC00AE
:1007D00083FDD8CF85EC8093BC000E94D0026B01D2
:1007E0007C0180917602813009F440C080915302EF
:1007F0008C1710F4C0915302E0E3F2E0A6E5B2E0FA
:1008000080E08C1355C08C2FDF91CF911F910F91F9
:10081000FF90EF90DF90CF900895809178029091B3
:100820007902A0917A02B0917B02892B8A2B8B2BC3
:1008300009F484CF0E94D0020091780210917902CD
:1008400020917A0230917B026C197D098E099F09F3
:10085000061717072807390708F070CF809177022D
:100860000E946C03C0E0CFCF85EEB5CF80917802B7
:1008700090917902A0917A02B0917B02892B8A2B08
:100880008B2B09F4AECF0E94D00200917802109118
:10089000790220917A0230917B026C197D098E09D0
:1008A0009F09061717072807390708F09ACFD6CFF0
:1008B00091919D938F5FA5CF8F929F92AF92BF92A0
:1008C000CF92DF92EF92FF920F931F93CF93DF931C
:1008D000D0911D03D13208F0D7C0182FC0912F023C
:1008E0000E94D0026B017C018091760281116BC065
:1008F00082E080937602109355028FEF809354022A
:1009000010925302D0935202AFE0B2E0E0E3F2E083
:1009100080E0D81391C01092510280915102CC0F07
:10092000C82BC093510280915002813009F088C0D9
:10093000109250020E94D0026B017C018091510202
:100940008093BB008091780290917902A0917A0205
:10095000B0917B02892B8A2B8B2BA1F00E94D002B5
:10096000009178021091790220917A0230917B02F5
:100970006C197D098E099F09061717072807390783
:1009800008F442C08091BC0083FDD8CF85EC8093F1
:10099000BC000E94D0026B017C0180917602823003
:1009A00009F450C0809154028F3F09F46FC08091C8
:1009B0005402803209F46CC080915402803309F4EF
:1009C00069C084E026C08091780290917902A0915C
:1009D0007A02B0917B02892B8A2B8B2B09F484CF6E
:1009E0000E94D0028090780290907902A0907A02C2
:1009F000B0907B026C197D098E099F0986169706B7
:100A0000A806B90608F070CF809177020E946C03A7
:100A100085E010921E0310921D0310920E02DF91CA
:100A2000CF911F910F91FF90EF90DF90CF90BF90EB
:100A3000AF909F908F9008959D9191938F5F69CF14
:100A400085EEA5CF8091780290917902A0917A02EB
:100A5000B0917B02892B8A2B8B2B09F49ECF0E94AD
:100A6000D002009178021091790220917A0230919F
:100A70007B026C197D098E099F0906171707280745
:100A8000390708F08ACFC0CF81E0C3CF80E0C1CF63
:100A900082E0BFCF83E0BDCF0895E0912003809135
:100AA0001F03E81730F4F0E0EA5AFD4F808190E030
:100AB00008958FEF9FEF08959091200380911F0379
:100AC0002FEF3FEF981748F4E92FF0E0EA5AFD4F77
:100AD000208130E09F5F90932003C9010895CF9259
:100AE000DF92EF92FF920F931F93CF93DF937C01DE
:100AF000CB018A0120910E02222389F0EB016B01C8
:100B0000C40ED51ECC15DD0569F06991D701ED91B4
:100B1000FC910190F081E02DC7010995F3CF642F7E
:100B20000E942703C801DF91CF911F910F91FF9081
:100B3000EF90DF90CF90089521E020930E0227E7F9
:100B400020932F0210921E0310921D0342E050E0EA
:100B5000BC0181E293E00E946F0581E00E945C0489
:100B6000982F8093770381E0911180E00895CF93CF
:100B7000DF931F92CDB7DEB7698320910E02222347
:100B8000F9F020911D03203258F021E030E0FC0103
:100B90003383228390E080E00F90DF91CF9108951E
:100BA00080911E03E82FF0E0E15FFD4F9981908373
:100BB0008F5F80931E0380931D0381E090E0ECCF54
:100BC00061E0CE0101960E942703F7CF90E080E01C
:100BD0000895EF92FF920F931F93CF93DF938C01B1
:100BE000F62E81E080930E0287E780932F02109209
:100BF0001E0310921D03F801608181E293E00E94C0
:100C0000B70581E00E945C0480937703811124C0C2
:100C1000CF2D0F2C000CDD0B6F2D87E70E948D036D
:100C20001092200380931F0390E0C817D907E9F7BB
:100C3000E02EC02FD12F81E293E00E945C058993C2
:100C40008C2F8E198F15BCF381E0DF91CF911F910E
:100C50000F91FF90EF90089580E0F7CF0F931F93CF
:100C6000CF93DF9300D0CDB7DEB78B01898362E0ED
:100C7000CE0101960E94E905882381F089819A813D
:100C8000982789279827F8019183808381E00F9026
:100C90000F90DF91CF911F910F910895F80111826C
:100CA0001082F5CF0F931F93CF93DF9300D0CDB772
:100CB000DEB78B01898362E0CE0101960E94E905CF
:100CC000882381F089819A81982789279827F801BC
:100CD0009183808381E00F900F90DF91CF911F91DE
:100CE0000F910895F80111821082F5CFEF92FF92D3
:100CF0001F93CF93DF9361E080917E030E94710286
:100D00006AEF70E080E090E00E94F5022FB7F8945F
:100D100080910A0290910B02A0910C02B0910D02F9
:100D20002FBF4091810350918203609183037091A2
:100D3000840384179507A607B70740F41092810330
:100D400010928203109283031092840320918503F2
:100D5000211118C040918103509182036091830357
:100D600070918403841B950BA60BB70B803D9740B5
:100D7000A105B10538F481E0DF91CF911F91FF907B
:100D8000EF900895109285032FB7F89480910A028E
:100D900090910B02A0910C02B0910D022FBF809395
:100DA000810390938203A0938303B09384031092F2
:100DB0007C0310927B0310927A03109279031092B5
:100DC000780361E080917E030E949F0260E0809141
:100DD0007E030E94710264E170E080E090E00E9476
:100DE000F502F89461E080917E030E9471028BE924
:100DF00090E00197F1F760E080917E030E949F02EE
:100E000010E081E0C0E0D0E0E82EF12C80917E037C
:100E10000E9448028E159F0519F4DF5FDF3FB1F78E
:100E200080917E030E944802DF3FC1F0C43098F0F9
:100E3000C0FD11C0E12FE695E695E695F0E0E85893
:100E4000FC4F9081990F9083209180032D1710F40F
:100E5000916090831F5FCF5FC535A9F678941832F3
:100E6000B8F040917C032091780380917903280F9A
:100E70003327331F80917A03280F311D80917B0324
:100E8000820F932F911D99274817190609F473CFE4
:100E900080E072CFFC0101900020E9F73197AF01AB
:100EA000481B590BBC018CE792E00C941201CF93C4
:100EB000DF93FC0144815581608171818CE792E070
:100EC0000E941201EC018AE291E00E944A078C0F15
:100ED0009D1FDF91CF910895CF93DF930E944A0722
:100EE000EC018AE291E00E944A078C0F9D1FDF917E
:100EF000CF9108950F931F93CF93DF93EC018881D7
:100F00009981009759F02A813B812617370730F0E5
:100F100081E0DF91CF911F910F9108958B016F5F59
:100F20007F4F0E942617009759F0998388831B836F
:100F30000A832C813D81232B59F7FC011082E8CFD5
:100F400080E0E7CFEF92FF920F931F93CF93DF9351
:100F50006115710541F480E0DF91CF911F910F91F0
:100F6000FF90EF90089541155105B1F07B01EC0120
:100F70000C811D81040F151FB8010E947A07882378
:100F800051F3288139818C819D81B701820F931F94
:100F90000E94EC171D830C8381E0DECFCF93DF939B
:100FA000EC0188819981009711F00E949D161982A9
:100FB00018821D821C821B821A82DF91CF910895B4
:100FC000EF92FF920F931F93CF93DF93EC017B017E
:100FD000198218821B821A821D821C82FB010190D9
:100FE0000020E9F731978F01061B170BB8010E940B
:100FF0007A07811109C0CE01DF91CF911F910F9126
:10100000FF90EF900C94CE071D830C83B70188816D
:101010009981DF91CF911F910F91FF90EF900C94E8
:10102000EC17EF92FF920F931F93CF93DF938C01F6
:101030007B01EB0109900020E9F72197C61BD70B34
:10104000BE010E947A07811109C0C801DF91CF91CA
:101050001F910F91FF90EF900C94CE07F801D5836C
:10106000C483B70180819181DF91CF911F910F914E
:10107000FF90EF900C94EC17EF92FF920F931F9359
:10108000CF93DF93CDB7DEB7A1970FB6F894DEBF4D
:101090000FBECDBF7C01CB01BA01F70111821082D6
:1010A00013821282158214828E010F5F1F4F22E07D
:1010B00044E00E943711009789F0BC01C7010E94EB
:1010C0001108A1960FB6F894DEBF0FBECDBFDF9119
:1010D000CF911F910F91FF90EF900895C7010E944B
:1010E000CE07EFCF0F931F93CF93DF93CDB7DEB72C
:1010F00062970FB6F894DEBF0FBECDBF8C01CB0157
:10110000F8011182108213821282158214824AE041
:10111000BE016F5F7F4F0E945511BE016F5F7F4F11
:10112000C8010E94110862960FB6F894DEBF0FBE88
:10113000CDBFDF91CF911F910F9108950F931F9312
:10114000CF93DF93CDB7DEB729970FB6F894DEBF04
:101150000FBECDBF8C01862FF80111821082138241
:101160001282158214824AE0BE016F5F7F4F90E0C9
:101170000E946011BE016F5F7F4FC8010E9411087D
:1011800029960FB6F894DEBF0FBECDBFDF91CF9189
:101190001F910F910895CF93DF93EC01FB01019014
:1011A0000020E9F73197AF01461B570B0E94A207B9
:1011B000811103C0CE010E94CE07CE01DF91CF91F5
:1011C0000895CF93DF93EC01FB0144815581608149
:1011D00071810E94A207811103C0CE010E94CE0737
:1011E000CE01DF91CF910895FC018081918100971C
:1011F00011F00C949D160895EF92FF920F931F9398
:10120000CF93DF9300D000D000D0CDB7DEB78C01F4
:101210007B016CE271E00E94E0078AE0E816F104CD
:101220003CF441E050E06DE271E0C8010E94A20789
:10123000B701CE0101960E9472084D815E816981DD
:101240007A81C8010E94A207CE0101960E94F4088B
:10125000C80126960FB6F894DEBF0FBECDBFDF9152
:10126000CF911F910F91FF90EF90089585ED80939E
:10127000BC008091780290917902A0917A02B0919D
:101280007B020796A11DB11D23E0B695A795979502
:1012900087952A95D1F72091BC0024FD03C01092B8
:1012A00076020895409178025091790260917A0215
:1012B00070917B02452B462B472B69F30097A105C4
:1012C000B10541F025E32A95F1F700000197A10946
:1012D000B109E1CF809177020C946C031F920F92B9
:1012E0000FB60F9211242F933F934F935F936F93F9
:1012F0007F938F939F93AF93BF93EF93FF938CE76D
:1013000092E00E949001FF91EF91BF91AF919F9168
:101310008F917F916F915F914F913F912F910F909E
:101320000FBE0F901F9018951F920F920FB60F923D
:1013300011242F938F939F93EF93FF93E0918C024F
:10134000F0918D028081E0919202F091930282FDF2
:101350001BC09081809195028F5F8F7320919602C0
:10136000821741F0E0919502F0E0E458FD4F958F2F
:1013700080939502FF91EF919F918F912F910F9004
:101380000FBE0F901F9018958081F4CF1F920F927F
:101390000FB60F9211242F933F938F939F93AF9388
:1013A000BF9380910A0290910B02A0910C02B09120
:1013B0000D023091040223E0230F2D3758F50196DA
:1013C000A11DB11D2093040280930A0290930B0289
:1013D000A0930C02B0930D02809105029091060239
:1013E000A0910702B09108020196A11DB11D809342
:1013F000050290930602A0930702B0930802BF91E2
:10140000AF919F918F913F912F910F900FBE0F90B1
:101410001F90189526E8230F0296A11DB11DD2CF6B
:101420001F920F920FB60F9211242F933F934F9359
:101430005F936F937F938F939F93AF93BF93EF933C
:10144000FF938091B900887F803609F44AC0F0F597
:10145000883209F4A7C018F5803109F49BC0B8F4AC
:10146000882309F4F9C0883009F494C0FF91EF9102
:10147000BF91AF919F918F917F916F915F914F91AC
:101480003F912F910F900FBE0F901F9018958831AC
:1014900009F488C0803251F78093540214C080341C
:1014A00009F49DC040F48033B9F38833F9F6809392
:1014B000540285ECB0C0803509F485C0883509F444
:1014C00096C0883499F60E943609D0CF883909F43D
:1014D0008CC038F5883729F050F4883611F0803701
:1014E00029F683E0809376021092030257C0883871
:1014F00009F47BC0803919F0803809F0B7CF8091AA
:101500000302803208F071C0E091030281E08E0F87
:10151000809303028091BB00F0E0ED51FE4F808389
:101520003DC0803B39F0E0F4803A09F479C0883A54
:1015300009F09CCF84E0809376021092E201109231
:10154000E101E0911903F0911A0309958091E101FD
:1015500081110FC081E08093E1011092C10109C0A7
:10156000803C09F4A6CF883C09F4A3CF883B09F05E
:101570007DCFE091E20181E08E0F8093E201F0E007
:10158000EF53FE4F80818093BB009091E2018091E8
:10159000E10129C0809151028093BB0085EC8093CA
:1015A000BC0064CF9091530280915202981758F575
:1015B000E091530281E08E0F80935302F0E0E05DF2
:1015C000FD4F8081E9CFE091530281E08E0F80933F
:1015D00053028091BB00F0E0E05DFD4F808390916D
:1015E0005302809152029817C8F285E8D8CFE09153
:1015F000530281E08E0F809353028091BB00F0E094
:10160000E05DFD4F80838091550281115CCF81E0C8
:101610008093500284EA8093BC001092760226CF19
:1016200085EC8093BC001092760280910302803298
:1016300030F4E0910302F0E0ED51FE4F1082609132
:10164000030270E0E0911B03F0911C0383EE91E034
:101650000995109203020ACF1092540234CF1F92C0
:101660000F920FB60F9211240F900FBE0F901F9084
:101670001895CF92DF92EF92FF92ECE7F2E013829F
:10168000128288EEC82E83E0D82EE12CF12CC48281
:10169000D582E682F7828AE091E09183808385ECAF
:1016A00090E09587848784EC90E09787868780EC2C
:1016B00090E0918B808B81EC90E0938B828B82EC1D
:1016C00090E0958B848B86EC90E0978B868B118EC7
:1016D000128E138E148E1092200310921F031092FC
:1016E0001E0310921D030E944E0389E091E0909327
:1016F0001A03809319038AE091E090931C0380936E
:101700001B03E1E2F3E013821282C482D582E682F7
:10171000F7828CE191E091838083E8E7F3E082E057
:10172000868386E1878386E0808781E08587FF90D6
:10173000EF90DF90CF900895CF93DF93CDB7DEB7D2
:10174000A0970FB6F894DEBF0FBECDBF789484B5D6
:10175000826084BD84B5816084BD85B5826085BDAD
:1017600085B5816085BD80916E00816080936E003B
:10177000109281008091810082608093810080912D
:1017800081008160809381008091800081608093DE
:1017900080008091B10084608093B1008091B0009E
:1017A00081608093B00080917A00846080937A0099
:1017B00080917A00826080937A0080917A008160C3
:1017C00080937A0080917A00806880937A001092EA
:1017D000C100E0918C02F0918D0282E08083E09163
:1017E0008802F09189021082E0918A02F0918B02C6
:1017F0008FEC808310929402E0919002F09191021C
:1018000086E08083E0918E02F0918F02808180617A
:101810008083E0918E02F0918F02808188608083C6
:10182000E0918E02F0918F02808180688083E09148
:101830008E02F0918F0280818F7D80831092200331
:1018400010921F0310921E0310921D030E944E035C
:1018500089E091E090931A03809319038AE091E064
:1018600090931C0380931B036DE273E08AEA0E944D
:101870005206882309F46CC16FE273E08CEA0E947F
:101880005206882309F464C161E373E08EEA0E9482
:101890005206882309F45CC16DE373E080EB0E947B
:1018A0002E06882309F454C16FE373E082EB0E9493
:1018B0002E06882309F44CC161E473E084EB0E9496
:1018C0002E06882309F444C163E373E086EB0E948B
:1018D0005206882309F43CC165E373E088EB0E945B
:1018E0005206882309F434C167E373E08AEB0E944F
:1018F0005206882309F42CC169E373E08CEB0E9443
:101900005206882309F424C16BE373E08EEB0E9436
:101910005206882309F41CC160913103709132038F
:10192000072E000C880B990B0E94C31320E030E0B7
:1019300040EA5BE30E9422142B013C0160913D03CD
:1019400070913E0390E080E00E94C1132FE632E1E7
:1019500043E053E30E9422146B017C016091330346
:1019600070913403072E000C880B990B0E94C3134F
:1019700020E030E048EC57E30E9422144B015C0168
:1019800060913F037091400390E080E00E94C1139A
:101990002DEC3CEC4CE454E30E942214609343038E
:1019A00070934403809345039093460360914103F1
:1019B0007091420390E080E00E94C113609347035E
:1019C000709348038093490390934A0360913903CD
:1019D00070913A03072E000C880B990B0E94C313D9
:1019E0002AE037ED43EA5DE30E94221460934B0343
:1019F00070934C0380934D0390934E0360913B038F
:101A000070913C03072E000C880B990B0E94C313A6
:101A100020E030E040E253E40E94841560934F03DD
:101A200070935003809351039093520360912D0360
:101A300070912E03072E000C880B990B0E94C31384
:101A4000609353037093540380935503909356030C
:101A500060912F0370913003072E000C880B990BB7
:101A60000E94C31320E030E040EA5CE30E942214AD
:101A700060935703709358038093590390935A03CC
:101A80006091350370913603072E000C880B990B7B
:101A90000E94C31320E030E048E45AE30E9422147D
:101AA00060935B0370935C0380935D0390935E038C
:101AB00020E030E040E057E4C701B6010E94221464
:101AC00060935F037093600380936103909362035C
:101AD000A7019601C301B2010E942214609363031F
:101AE000709364038093650390936603A50194014A
:101AF000C701B6010E9422146093670370936803C4
:101B00008093690390936A038CEE91E5A7E1B0E4BA
:101B100080936B0390936C03A0936D03B0936E035B
:101B200080E394E3AEE7BFE380936F039093700389
:101B3000A0937103B093720380E097E5A4E9B6E344
:101B40008093730390937403A0937503B09376030B
:101B500060E080917E030E949F0261E080917E039D
:101B60000E947102109281031092820310928303EB
:101B7000109284030AE02224239494EF392E2092B9
:101B80000E0288E680932F0210921E0310921D030E
:101B900060E081E293E00E94B70581E00E945C046E
:101BA000882361F01092090280910902882309F4C8
:101BB000FFC089E491E00E946C07E2C02092090214
:101BC00067E088E60E948D031092200380931F0334
:101BD000873050F381E293E00E945C05B82E829535
:101BE00087706B2D6F70C62E809FC00C112481E210
:101BF00093E00E945C05982F92959F708F70F82E4D
:101C0000909FF00C112481E293E00E945C05982FD4
:101C1000929593708F70182F909F100D112481E270
:101C200093E00E945C0581E293E00E945C05982F9E
:101C300092959F708F70E82E909FE00C112481E2A6
:101C400093E00E945C05982F92959F708F70D82E1C
:101C5000909FD00C112481E293E00E945C05982FA4
:101C600092959F708F70825EA82E909FA00C112479
:101C7000B7FC9ACF6C2D70E0CE0101960E94FC0853
:101C80006F2D70E0CE0107960E94FC08612F70E076
:101C9000CE010D960E94FC086FE271E0CE014396E2
:101CA0000E94E007BE01635F7F4FCE0143960E9412
:101CB000E10866E371E00E94CB08BE01695F7F4FD7
:101CC0000E94E10866E371E00E94CB08BE016F5FED
:101CD0007F4F0E94E1080E945707CE0143960E9461
:101CE000F408CE010D960E94F408CE0107960E94DA
:101CF000F408CE0101960E94F4086A2D70E06E543B
:101D0000784FCE0101960E9472086D2DCE01079684
:101D10000E949E086E2DCE010D960E949E0868E3DB
:101D200071E0CE0143960E94E007BE01635F7F4FE2
:101D3000CE0143960E94E10867E471E00E94CB085F
:101D4000BE01695F7F4F0E94E10867E471E00E9475
:101D5000CB08BE016F5F7F4F0E94E1080E945707CA
:101D6000CE0143960E94F408CE010D960E94F4081D
:101D7000CE0107960E94F408CE0101960E94F40855
:101D80000E947606882349F080917F038B3099F07A
:101D900020F08551823008F4C6C183E791E00E94AB
:101DA0004A07812C912C80ECA82E8FE7B82E0CC00E
:101DB00080E691E000CF6091780370E090E080E0F1
:101DC0000E94C1134B015C010E947606882351F0EA
:101DD00080917F038B3009F4C7C120F08551823098
:101DE00008F41AC283E791E00E944A078DE791E068
:101DF0000E946C0739829EE29A83CE0101960E946E
:101E00009C05882309F478C165E070E080E090E0EB
:101E10000E94F502A6EFA98362E0CE0101960E941E
:101E2000E905882309F468C179801A81C0904303C9
:101E3000D0904403E0904503F09046038090470320
:101E400090904803A0904903B0904A0380914B03BF
:101E500090914C03A0914D03B0914E03898F9A8FBE
:101E6000AB8FBC8F80914F0390915003A091510391
:101E7000B09152038D8F9E8FAF8FB8A339823A8273
:101E8000CE0101960E949C05882309F435C16AE1C0
:101E900070E080E090E00E94F50296EF998363E0A5
:101EA000CE0101960E94E905882309F425C1672D1A
:101EB00070E090E080E00E94C31320E030E040E852
:101EC00053E40E9422142B013C01612F70E090E04A
:101ED00080E00E94C3139B01AC01C301B2010E94C8
:101EE0001815A50194010E941715A70196010E94DB
:101EF00022146B017C012D8D3E8D4F8D58A10E94C7
:101F000018159B01AC01698D7A8D8B8D9C8D0E947B
:101F10008415A70196010E94181520E030E048ECD6
:101F200051E40E9417156B017C01AC019B010E94DA
:101F300022144B015C01698170E090E080E00E9416
:101F4000C31320E030E040E853E40E9422142B0148
:101F50003C016A8170E090E080E00E94C3139B0125
:101F6000AC01C301B2010E9418152B013C016B8129
:101F700070E090E080E00E94C31320E030E040E891
:101F80005BE30E9422149B01AC01C301B2010E94D9
:101F90001815698F7A8F8B8F9C8F20915B033091FE
:101FA0005C0340915D0350915E03C501B4010E9442
:101FB00022142B013C01209157033091580340918A
:101FC000590350915A03C701B6010E9422149B0184
:101FD000AC01C301B2010E94181520915303309146
:101FE000540340915503509156030E9418159B01CC
:101FF000AC01698D7A8D8B8D9C8D0E9417152B01FC
:102000003C0120916703309168034091690350912E
:102010006A03C501B4010E9422144B015C012091A6
:102020006303309164034091650350916603C701D7
:10203000B6010E9422149B01AC01C501B4010E94AB
:10204000181520915F033091600340916103509116
:1020500062030E9418159B01AC01C301B2010E94EA
:1020600084156B017C01AC019B010E94221420911C
:1020700073033091740340917503509176030E946D
:1020800022144B015C0120916F0330917003409149
:10209000710350917203C701B6010E9422149B0183
:1020A000AC01C501B4010E94181520916B03309159
:1020B0006C0340916D0350916E030E941815AB01A3
:1020C000BC01CE0101960E943C0862EB71E0CE019A
:1020D00007960E94E007BE016F5F7F4FCE01079613
:1020E0000E94E1080E945707CE0107960E94F4085B
:1020F000CE0101960E94F4088AE291E00E944A070C
:1021000068EE73E080E090E00E94F502A0E0B0E0AD
:10211000AB2B09F434CD0E947C01882309F42BCD2C
:102120000E94000028CD6091780370E090E080E08C
:102130000E94C11320E030E040E853E40E942214E2
:102140006B017C016091790370E090E080E00E9477
:10215000C313A70196010E94181520E030E040E269
:1021600051E40E9484152ECE60917A0370E090E0D5
:1021700080E00E94C1136B017C01A7019601C70199
:10218000B6010E94F615811131CEA5019401C50159
:10219000B4010E94F615811129CEB501A401CE012A
:1021A00001960E943C0865E971E0CE0107960E9405
:1021B000E007BE016F5F7F4FCE0107960E94E108E6
:1021C0000E945707CE0107960E94F408CE0101969F
:1021D0000E94F408B701A601CE0101960E943C08B6
:1021E00060EA71E0CE0107960E94E007BE016F5FD2
:1021F0007F4FCE0107960E94E1086EEA71E00E94CF
:10220000CB080E945707CE0107960E94F408CE0122
:1022100001960E94F408EECD10917A03612F6F773A
:1022200070E090E080E00E94C31320E030E040E8DE
:1022300053E40E9422146B017C0160917B0370E0E7
:1022400090E080E00E94C313A70196010E94181538
:1022500020E030E040E251E40E9484156B017C01F3
:1022600017FF8BCFF7FAF094F7F8F09486CFEF9240
:102270000F931F93CF93DF93E80134E047FD34E1E0
:10228000042E000C550B57FF03C051954195510981
:10229000E32E022F242FAE010E947A11CE01DF918E
:1022A000CF911F910F91EF900895BB274A3031F4E1
:1022B000992322F4BDE2909581959F4F0C94611172
:1022C000BB27FB015527AA27880F991FAA1FA41710
:1022D00010F0A41B83955051B9F7A05DAA3308F004
:1022E000A95DA193009779F7B111B1931192CB0138
:1022F0000C94B113A9E0B0E0E0E8F1E10C94E6142D
:102300006A01F22EB02E102FFBE3AF2EA01608F4B8
:102310001BE31F5F012F27E0AE014F5F5F4F0E945D
:10232000D912BC018981982F9970913009F43FC06E
:102330009BE2E1FC04C09E2D9170E0FC3AC05E2D52
:102340005071E82FE87083FF46C084E0911101C00E
:1023500083E0EF2DE81B8F1508F0E0E0D6018E2F0B
:1023600020E2552351F1992329F0D6019C93C6010F
:1023700001966C0196012D5F3F4FE2FE24C08EE472
:10238000D6018C9391E411969C93119712968C939D
:10239000D9018E2F90E281111BC0E20FF32FF11DA6
:1023A00010828EEF9FEF2996ECE00C9402159DE2CF
:1023B000C6CF90E2C4CF2D9381508111FCCFCE0EB9
:1023C000D11CE0E0D0CF8EE6D6018C9391E6DBCF36
:1023D0009D938150E0CF482F447082FF3DC084E040
:1023E000911101C083E08F1510F4EF2DE81BD60189
:1023F0008E2F20E2552309F1992329F0D6019C93D1
:10240000C60101966C0196012D5F3F4FE2FE1BC095
:1024100089E4D6018C938EE411968C93119786E40F
:1024200012968C93D9018E2F90E2882309F4B5CFB0
:102430009D938150FACF2D9381508111FCCFCE0E08
:10244000D11CE0E0D9CF89E6D6018C938EE61196B7
:102450008C93119786E6E4CF9B0177FF02C030E0B2
:1024600020E0A1E0B0E0911102C0B0E0A0E0F901ED
:102470003196AE0FBF1F8B2C912CBB2009F461C08D
:102480005401EFEFAE1ABE0AAA0DBB1DFA161B06C9
:1024900019F014F04F2D4A1B511188C0E3FC59C0AC
:1024A0007601A42FB0E2A1114FC0C40ED11C992314
:1024B00009F45BC040E0D6011196F60190836D01EE
:1024C000552309F448C0012F060F9A81582F5071E7
:1024D00084FF03C0913309F4015010160CF047C07B
:1024E000093008F008E0EEE2FE2E5B01A01AB10808
:1024F00085019194819491082F3F320729F4D601E8
:10250000FC92F60131966F016217730794F102177E
:1025100013077CF5DB01A21BB30BAA24A394B12CF7
:10252000AC0EBD1EAA0DBB1D11968C912150310918
:10253000D601119628153905F4F0F60180836D0156
:10254000DBCFB12CA12CA0CFF701B1937F01A1501B
:10255000AACF9111B0CFD601942F50E302C05D9362
:1025600091509111FCCFC40ED11C40E0ACCF01E0E2
:10257000BACF80E3DBCF6217730731F4963388F468
:10258000953311F4552369F0F6018083FD01842F02
:1025900090E2811108C0A40FB11D1C9290E080E070
:1025A00002CF81E3F1CF91938150F3CF911183CF8B
:1025B0008ACF283008F027E03327DA01990F311D40
:1025C00087FD916000966105710539F432602E5FD8
:1025D0003D9330E32A95E1F708959F3F30F080382E
:1025E0007105610509F03C5F3C5F3D93913008F057
:1025F0008068911DDF93CF931F930F93FF92EF920B
:10260000192F987F9695E92F96959695E90FFF27B4
:10261000EE53FF4F99273327EE24FF24A701E7014C
:1026200005900894079428F4360FE71EF81E491FFA
:10263000511D660F771F881F991F0694A1F70590FB
:10264000079428F4E70EF81E491F561FC11D770F87
:10265000881F991F661F0694A1F70590079428F418
:10266000F80E491F561FC71FD11D880F991F661FDF
:10267000771F0694A1F70590079420F4490F561F81
:10268000C71FD81F990F661F771F881F0694A9F7C9
:1026900084911095177041F0D695C7955795479539
:1026A000F794E7941A95C1F7E8E6F0E0689415907E
:1026B000159135916591959105907FE27395E1189B
:1026C000F10A430B560BC90BD009C0F7E10CF11E00
:1026D000431F561FC91FD01D7EF4703311F48A9515
:1026E000E6CFE894015030F0080F0AF400270217F3
:1026F00008F4202F2395022F7A3328F079E37D9375
:102700002A95E9F710C07D932A9589F60694979546
:102710006795379517951794E118F10A430B560BF7
:10272000C90BD00998F023957E9173957A3308F000
:1027300070E37C932013B8F77E9170617D9330F045
:10274000839571E37D9370E32A95E1F71124EF906F
:10275000FF900F911F91CF91DF91992787FD909561
:102760000895DC01FC01672F71917723E1F732971F
:1027700004C07C916D9370836291AE17BF07C8F35C
:102780000895E89409C097FB3EF490958095709564
:1027900061957F4F8F4F9F4F9923A9F0F92F96E9AD
:1027A000BB279395F695879577956795B795F11122
:1027B000F8CFFAF4BB0F11F460FF1BC06F5F7F4FBF
:1027C0008F4F9F4F16C0882311F096E911C07723D1
:1027D00021F09EE8872F762F05C0662371F096E8DA
:1027E000862F70E060E02AF09A95660F771F881FA9
:1027F000DAF7880F9695879597F90895990F00084D
:10280000550FAA0BE0E8FEEF16161706E807F907C2
:10281000C0F012161306E407F50798F0621B730B5D
:10282000840B950B39F40A2661F0232B242B252BDE
:1028300021F408950A2609F4A140A6958FEF811D81
:10284000811D08950E9435140C94A6140E949814BA
:1028500038F00E949F1420F0952311F00C948F14EF
:102860000C94951411240C94DA140E94B71470F38C
:10287000959FC1F3950F50E0551F629FF001729F25
:10288000BB27F00DB11D639FAA27F00DB11DAA1F34
:10289000649F6627B00DA11D661F829F2227B00D81
:1028A000A11D621F739FB00DA11D621F839FA00D0C
:1028B000611D221F749F3327A00D611D231F849F5C
:1028C000600D211D822F762F6A2F11249F575040B3
:1028D0009AF0F1F088234AF0EE0FFF1FBB1F661F2E
:1028E000771F881F91505040A9F79E3F510580F0F7
:1028F0000C948F140C94DA145F3FE4F3983ED4F3F5
:10290000869577956795B795F795E7959F5FC1F79A
:10291000FE2B880F911D9695879597F9089597F945
:102920009F6780E870E060E008959FEF80EC089575
:1029300000240A941616170618060906089500249E
:102940000A9412161306140605060895092E039418
:10295000000C11F4882352F0BB0F40F4BF2B11F48C
:1029600060FF04C06F5F7F4F8F4F9F4F089557FDEB
:102970009058440F551F59F05F3F71F04795880FED
:1029800097FB991F61F09F3F79F087950895121684
:1029900013061406551FF2CF4695F1DF08C0161630
:1029A00017061806991FF1CF8695710561050894E1
:1029B0000895E894BB2766277727CB0197F90895F8
:1029C0002F923F924F925F926F927F928F929F923F
:1029D000AF92BF92CF92DF92EF92FF920F931F932D
:1029E000CF93DF93CDB7DEB7CA1BDB0B0FB6F894DE
:1029F000DEBF0FBECDBF09942A88398848885F841E
:102A00006E847D848C849B84AA84B984C884DF808E
:102A1000EE80FD800C811B81AA81B981CE0FD11D72
:102A20000FB6F894DEBF0FBECDBFED01089550582C
:102A3000BB27AA270E942F150C94A6140E94981455
:102A400038F00E949F1420F039F49F3F19F426F4C7
:102A50000C9495140EF4E095E7FB0C948F14E92F79
:102A60000E94B71458F3BA176207730784079507D3
:102A700020F079F4A6F50C94D9140EF4E0950B2E01
:102A8000BA2FA02D0B01B90190010C01CA01A001C0
:102A90001124FF27591B99F0593F50F4503E68F11B
:102AA0001A16F040A22F232F342F4427585FF3CF5C
:102AB000469537952795A795F0405395C9F77EF42D
:102AC0001F16BA0B620B730B840BBAF09150A1F076
:102AD000FF0FBB1F661F771F881FC2F70EC0BA0FFC
:102AE000621F731F841F48F4879577956795B79584
:102AF000F7959E3F08F0B0CF9395880F08F099277F
:102B0000EE0F9795879508950E9498150C94A6143A
:102B10000E949F1458F00E94981440F029F45F3FDF
:102B200029F00C948F1451110C94DA140C94951410
:102B30000E94B71468F39923B1F3552391F3951BC1
:102B4000550BBB27AA2762177307840738F09F5FCE
:102B50005F4F220F331F441FAA1FA9F335D00E2E3B
:102B60003AF0E0E832D091505040E695001CCAF7A8
:102B70002BD0FE2F29D0660F771F881FBB1F26176B
:102B800037074807AB07B0E809F0BB0B802DBF0142
:102B9000FF2793585F4F3AF09E3F510578F00C9411
:102BA0008F140C94DA145F3FE4F3983ED4F38695C7
:102BB00077956795B795F7959F5FC9F7880F911D32
:102BC0009695879597F90895E1E0660F771F881F1E
:102BD000BB1F621773078407BA0720F0621B730BD1
:102BE000840BBA0BEE1F88F7E09508950E94FE1340
:102BF000880B990B0895EE0FFF1F0590F491E02DBF
:102C000009940F931F93CF93DF938230910510F4B3
:102C100082E090E0E0918803F091890330E020E0C9
:102C2000B0E0A0E0309799F42115310509F44AC0CD
:102C3000281B390B24303105D8F58A819B81611519
:102C4000710589F1FB0193838283FE0111C04081EC
:102C500051810281138148175907E0F0481759073D
:102C600099F4109761F012960C93129713961C9397
:102C70003296CF01DF91CF911F910F91089500936C
:102C8000880310938903F4CF2115310551F04217C1
:102C9000530738F0A901DB019A01BD01DF01F801FA
:102CA000C1CFEF01F9CF9093890380938803CDCFF3
:102CB000FE01E20FF31F8193919322503109398372
:102CC0002883D7CF2091860330918703232B41F4AB
:102CD00020910201309103013093870320938603F2
:102CE00020910001309101012115310541F42DB7EA
:102CF0003EB74091040150910501241B350BE09132
:102D00008603F0918703E217F307A0F42E1B3F0B15
:102D10002817390778F0AC014E5F5F4F241735074D
:102D200048F04E0F5F1F50938703409386038193B3
:102D300091939FCFF0E0E0E09CCFCF93DF9300979B
:102D4000E9F0FC01329713821282A0918803B091BE
:102D50008903ED0130E020E01097A1F4208131815A
:102D6000820F931F2091860330918703281739071C
:102D700009F061C0F0938703E0938603DF91CF9160
:102D80000895EA01CE17DF07E8F54A815B819E01CD
:102D900041155105B1F7E901FB83EA834991599146
:102DA000C40FD51FEC17FD0761F480819181029655
:102DB000840F951FE90199838883828193819B8386
:102DC0008A83F0E0E0E012968D919C911397009732
:102DD000B9F52D913C911197CD010296820F931F69
:102DE00020918603309187032817390739F63097E9
:102DF00051F51092890310928803B0938703A09332
:102E00008603BCCFD383C28340815181840F951F39
:102E1000C817D90761F44E5F5F4F88819981480FC9
:102E2000591F518340838A819B819383828321151B
:102E3000310509F0B0CFF0938903E09388039ECF6A
:102E4000FD01DC01C0CF13821282D7CFB0E0A0E039
:102E5000ECE2F7E10C94E2148C01009751F4CB0101
:102E60000E9401168C01C801CDB7DEB7E0E10C94D9
:102E7000FE14FC01E60FF71F9C0122503109E217F6
:102E8000F30708F49DC0D901CD91DC911197C617C5
:102E9000D70798F0C530D10530F3CE0104978617D7
:102EA000970708F3C61BD70B2297C193D1936D9355
:102EB0007C93CF010E949D16D6CF5B01AC1ABD0A50
:102EC0004C018C0E9D1EA0918803B0918903512C5A
:102ED000412CF12CE12C109731F5809186039091D3
:102EE00087038815990509F05CC04616570608F057
:102EF00058C08091000190910101009741F48DB775
:102F00009EB74091040150910501841B950BE81771
:102F1000F90708F055C0F0938703E0938603F901A1
:102F200071836083A0CF8D919C91119712966C90C4
:102F3000129713967C901397A815B90559F56C0153
:102F400042E0C40ED11CCA14DB0420F1AC014A19C2
:102F50005B09DA011296159780F0628273825183C1
:102F60004083D9016D937C93E114F10471F0D70192
:102F70001396FC93EE93129776CF22968C0F9D1F9B
:102F8000F90191838083F301EFCFF0938903E093FC
:102F9000880369CF4816590608F42C017D01D30136
:102FA0009ACFCB010E9401167C01009749F0AE0137
:102FB000B8010E94E317C8010E949D16870153CFF4
:102FC00010E000E050CFFB01DC0102C001900D9247
:102FD00041505040D8F70895FB01DC0101900D925B
:102FE0000020E1F70895F894FFCF00008A038000E5
:102FF00000000000B20112013F01FF0170014E010B
:10300000620100000000B7056F05E6054C050B01E5
:103010005C054D050D0A00300054696D653A2000CD
:103020003A00446174652028442F4D2F59293A20D5
:10303000002F0054686520445331333037206973C2
:103040002073746F707065642E00445331333037D1
:103050002072656164206572726F72210052656131
:1030600064206661696C004661696C656420746FF8
:1030700020726561642066726F6D20444854004878
:10308000756D69646974793A200054656D70657274
:1030900061747572653A2000202A4300507265738E
:0830A000737572653A2000000F
:107E0000112484B714BE81FFF0D085E080938100F7
:107E100082E08093C00088E18093C10086E0809377
:107E2000C20080E18093C4008EE0C9D0259A86E02C
:107E300020E33CEF91E0309385002093840096BBD3
:107E4000B09BFECF1D9AA8958150A9F7CC24DD24C4
:107E500088248394B5E0AB2EA1E19A2EF3E0BF2EE7
:107E6000A2D0813461F49FD0082FAFD0023811F036
:107E7000013811F484E001C083E08DD089C08234E0
:107E800011F484E103C0853419F485E0A6D080C0E4
:107E9000853579F488D0E82EFF2485D0082F10E0AE
:107EA000102F00270E291F29000F111F8ED06801E7
:107EB0006FC0863521F484E090D080E0DECF843638
:107EC00009F040C070D06FD0082F6DD080E0C81688
:107ED00080E7D80618F4F601B7BEE895C0E0D1E017
:107EE00062D089930C17E1F7F0E0CF16F0E7DF06D8
:107EF00018F0F601B7BEE89568D007B600FCFDCFD4
:107F0000A601A0E0B1E02C9130E011968C91119780
:107F100090E0982F8827822B932B1296FA010C0160
:107F200087BEE89511244E5F5F4FF1E0A038BF0790
:107F300051F7F601A7BEE89507B600FCFDCF97BE46
:107F4000E89526C08437B1F42ED02DD0F82E2BD052
:107F50003CD0F601EF2C8F010F5F1F4F84911BD097
:107F6000EA94F801C1F70894C11CD11CFA94CF0C13
:107F7000D11C0EC0853739F428D08EE10CD085E9AC
:107F80000AD08FE07ACF813511F488E018D01DD067
:107F900080E101D065CF982F8091C00085FFFCCF94
:107FA0009093C60008958091C00087FFFCCF809118
:107FB000C00084FD01C0A8958091C6000895E0E648
:107FC000F0E098E1908380830895EDDF803219F02E
:107FD00088E0F5DFFFCF84E1DECF1F93182FE3DFCA
:107FE0001150E9F7F2DF1F91089580E0E8DFEE27F6
:047FF000FF270994CA
:027FFE00040479
:00000001FF
